{
  "address": "0xb631a0d393361d2eCA1151D82482C5fb5Ef0254a",
  "abi": [
    {
      "inputs": [],
      "name": "PRBMathSD59x18__AbsInputTooSmall",
      "type": "error"
    },
    {
      "inputs": [],
      "name": "PRBMathSD59x18__MulInputTooSmall",
      "type": "error"
    },
    {
      "inputs": [
        {
          "internalType": "uint256",
          "name": "rAbs",
          "type": "uint256"
        }
      ],
      "name": "PRBMathSD59x18__MulOverflow",
      "type": "error"
    },
    {
      "inputs": [
        {
          "internalType": "uint256",
          "name": "rAbs",
          "type": "uint256"
        }
      ],
      "name": "PRBMathSD59x18__PowuOverflow",
      "type": "error"
    },
    {
      "inputs": [
        {
          "internalType": "uint256",
          "name": "prod1",
          "type": "uint256"
        }
      ],
      "name": "PRBMath__MulDivFixedPointOverflow",
      "type": "error"
    },
    {
      "inputs": [
        {
          "internalType": "uint256",
          "name": "prod1",
          "type": "uint256"
        },
        {
          "internalType": "uint256",
          "name": "denominator",
          "type": "uint256"
        }
      ],
      "name": "PRBMath__MulDivOverflow",
      "type": "error"
    },
    {
      "anonymous": false,
      "inputs": [
        {
          "indexed": true,
          "internalType": "address",
          "name": "owner",
          "type": "address"
        },
        {
          "indexed": true,
          "internalType": "address",
          "name": "operator",
          "type": "address"
        },
        {
          "indexed": true,
          "internalType": "uint256",
          "name": "tokenId",
          "type": "uint256"
        }
      ],
      "name": "Approval",
      "type": "event"
    },
    {
      "anonymous": false,
      "inputs": [
        {
          "indexed": true,
          "internalType": "address",
          "name": "owner",
          "type": "address"
        },
        {
          "indexed": true,
          "internalType": "address",
          "name": "operator",
          "type": "address"
        },
        {
          "indexed": false,
          "internalType": "bool",
          "name": "approved",
          "type": "bool"
        }
      ],
      "name": "ApprovalForAll",
      "type": "event"
    },
    {
      "anonymous": false,
      "inputs": [
        {
          "indexed": true,
          "internalType": "address",
          "name": "account",
          "type": "address"
        },
        {
          "indexed": true,
          "internalType": "uint256",
          "name": "amount",
          "type": "uint256"
        }
      ],
      "name": "FRClaimed",
      "type": "event"
    },
    {
      "anonymous": false,
      "inputs": [
        {
          "indexed": true,
          "internalType": "uint256",
          "name": "tokenId",
          "type": "uint256"
        },
        {
          "indexed": true,
          "internalType": "uint256",
          "name": "soldPrice",
          "type": "uint256"
        },
        {
          "indexed": true,
          "internalType": "uint256",
          "name": "allocatedFR",
          "type": "uint256"
        }
      ],
      "name": "FRDistributed",
      "type": "event"
    },
    {
      "anonymous": false,
      "inputs": [
        {
          "indexed": true,
          "internalType": "address",
          "name": "from",
          "type": "address"
        },
        {
          "indexed": true,
          "internalType": "address",
          "name": "to",
          "type": "address"
        },
        {
          "indexed": true,
          "internalType": "uint256",
          "name": "tokenId",
          "type": "uint256"
        }
      ],
      "name": "Transfer",
      "type": "event"
    },
    {
      "inputs": [
        {
          "internalType": "address",
          "name": "operator",
          "type": "address"
        },
        {
          "internalType": "uint256",
          "name": "tokenId",
          "type": "uint256"
        }
      ],
      "name": "approve",
      "outputs": [],
      "stateMutability": "payable",
      "type": "function"
    },
    {
      "inputs": [
        {
          "internalType": "address",
          "name": "account",
          "type": "address"
        }
      ],
      "name": "balanceOf",
      "outputs": [
        {
          "internalType": "uint256",
          "name": "",
          "type": "uint256"
        }
      ],
      "stateMutability": "view",
      "type": "function"
    },
    {
      "inputs": [
        {
          "internalType": "uint256",
          "name": "tokenId",
          "type": "uint256"
        },
        {
          "internalType": "address",
          "name": "account",
          "type": "address"
        }
      ],
      "name": "balanceOfOTokens",
      "outputs": [
        {
          "internalType": "uint256",
          "name": "",
          "type": "uint256"
        }
      ],
      "stateMutability": "view",
      "type": "function"
    },
    {
      "inputs": [
        {
          "internalType": "uint256",
          "name": "tokenId",
          "type": "uint256"
        }
      ],
      "name": "buy",
      "outputs": [],
      "stateMutability": "payable",
      "type": "function"
    },
    {
      "inputs": [
        {
          "internalType": "uint256",
          "name": "newManagerCut",
          "type": "uint256"
        }
      ],
      "name": "changeManagerCut",
      "outputs": [],
      "stateMutability": "nonpayable",
      "type": "function"
    },
    {
      "inputs": [
        {
          "internalType": "uint256",
          "name": "tokenId",
          "type": "uint256"
        }
      ],
      "name": "getApproved",
      "outputs": [
        {
          "internalType": "address",
          "name": "",
          "type": "address"
        }
      ],
      "stateMutability": "view",
      "type": "function"
    },
    {
      "inputs": [
        {
          "internalType": "uint256",
          "name": "tokenId",
          "type": "uint256"
        }
      ],
      "name": "getLicenseName",
      "outputs": [
        {
          "internalType": "string",
          "name": "",
          "type": "string"
        }
      ],
      "stateMutability": "view",
      "type": "function"
    },
    {
      "inputs": [
        {
          "internalType": "uint256",
          "name": "tokenId",
          "type": "uint256"
        }
      ],
      "name": "getLicenseURI",
      "outputs": [
        {
          "internalType": "string",
          "name": "",
          "type": "string"
        }
      ],
      "stateMutability": "view",
      "type": "function"
    },
    {
      "inputs": [
        {
          "internalType": "address",
          "name": "account",
          "type": "address"
        },
        {
          "internalType": "address",
          "name": "operator",
          "type": "address"
        }
      ],
      "name": "isApprovedForAll",
      "outputs": [
        {
          "internalType": "bool",
          "name": "",
          "type": "bool"
        }
      ],
      "stateMutability": "view",
      "type": "function"
    },
    {
      "inputs": [
        {
          "internalType": "uint256",
          "name": "tokenId",
          "type": "uint256"
        },
        {
          "internalType": "uint256",
          "name": "salePrice",
          "type": "uint256"
        }
      ],
      "name": "list",
      "outputs": [],
      "stateMutability": "nonpayable",
      "type": "function"
    },
    {
      "inputs": [
        {
          "internalType": "address",
          "name": "recipient",
          "type": "address"
        },
        {
          "internalType": "uint8",
          "name": "numGenerations",
          "type": "uint8"
        },
        {
          "internalType": "uint256",
          "name": "rewardRatio",
          "type": "uint256"
        },
        {
          "internalType": "uint256",
          "name": "ORatio",
          "type": "uint256"
        },
        {
          "internalType": "uint8",
          "name": "license",
          "type": "uint8"
        },
        {
          "internalType": "string",
          "name": "tokenURI",
          "type": "string"
        }
      ],
      "name": "mint",
      "outputs": [
        {
          "internalType": "uint256",
          "name": "tokenId",
          "type": "uint256"
        }
      ],
      "stateMutability": "nonpayable",
      "type": "function"
    },
    {
      "inputs": [],
      "name": "name",
      "outputs": [
        {
          "internalType": "string",
          "name": "",
          "type": "string"
        }
      ],
      "stateMutability": "view",
      "type": "function"
    },
    {
      "inputs": [
        {
          "internalType": "uint256",
          "name": "tokenId",
          "type": "uint256"
        }
      ],
      "name": "ownerOf",
      "outputs": [
        {
          "internalType": "address",
          "name": "",
          "type": "address"
        }
      ],
      "stateMutability": "view",
      "type": "function"
    },
    {
      "inputs": [
        {
          "internalType": "address payable",
          "name": "account",
          "type": "address"
        }
      ],
      "name": "releaseFR",
      "outputs": [],
      "stateMutability": "nonpayable",
      "type": "function"
    },
    {
      "inputs": [
        {
          "internalType": "address payable",
          "name": "account",
          "type": "address"
        }
      ],
      "name": "releaseOR",
      "outputs": [],
      "stateMutability": "nonpayable",
      "type": "function"
    },
    {
      "inputs": [
        {
          "internalType": "address",
          "name": "account",
          "type": "address"
        }
      ],
      "name": "retrieveAllottedFR",
      "outputs": [
        {
          "internalType": "uint256",
          "name": "",
          "type": "uint256"
        }
      ],
      "stateMutability": "view",
      "type": "function"
    },
    {
      "inputs": [
        {
          "internalType": "address",
          "name": "account",
          "type": "address"
        }
      ],
      "name": "retrieveAllottedOR",
      "outputs": [
        {
          "internalType": "uint256",
          "name": "",
          "type": "uint256"
        }
      ],
      "stateMutability": "view",
      "type": "function"
    },
    {
      "inputs": [
        {
          "internalType": "uint256",
          "name": "tokenId",
          "type": "uint256"
        }
      ],
      "name": "retrieveFRInfo",
      "outputs": [
        {
          "internalType": "uint8",
          "name": "numGenerations",
          "type": "uint8"
        },
        {
          "internalType": "uint256",
          "name": "percentOfProfit",
          "type": "uint256"
        },
        {
          "internalType": "uint256",
          "name": "successiveRatio",
          "type": "uint256"
        },
        {
          "internalType": "uint256",
          "name": "lastSoldPrice",
          "type": "uint256"
        },
        {
          "internalType": "uint256",
          "name": "ownerAmount",
          "type": "uint256"
        },
        {
          "internalType": "address[]",
          "name": "addressesInFR",
          "type": "address[]"
        }
      ],
      "stateMutability": "view",
      "type": "function"
    },
    {
      "inputs": [
        {
          "internalType": "uint256",
          "name": "tokenId",
          "type": "uint256"
        }
      ],
      "name": "retrieveListInfo",
      "outputs": [
        {
          "internalType": "uint256",
          "name": "",
          "type": "uint256"
        },
        {
          "internalType": "address",
          "name": "",
          "type": "address"
        },
        {
          "internalType": "bool",
          "name": "",
          "type": "bool"
        }
      ],
      "stateMutability": "view",
      "type": "function"
    },
    {
      "inputs": [],
      "name": "retrieveManagerInfo",
      "outputs": [
        {
          "internalType": "address",
          "name": "untradingManager",
          "type": "address"
        },
        {
          "internalType": "uint256",
          "name": "managerCut",
          "type": "uint256"
        }
      ],
      "stateMutability": "view",
      "type": "function"
    },
    {
      "inputs": [
        {
          "internalType": "uint256",
          "name": "tokenId",
          "type": "uint256"
        }
      ],
      "name": "retrieveORInfo",
      "outputs": [
        {
          "internalType": "uint256",
          "name": "ORatio",
          "type": "uint256"
        },
        {
          "internalType": "uint256",
          "name": "rewardRatio",
          "type": "uint256"
        },
        {
          "internalType": "address[]",
          "name": "holders",
          "type": "address[]"
        }
      ],
      "stateMutability": "view",
      "type": "function"
    },
    {
      "inputs": [
        {
          "internalType": "address",
          "name": "from",
          "type": "address"
        },
        {
          "internalType": "address",
          "name": "to",
          "type": "address"
        },
        {
          "internalType": "uint256",
          "name": "tokenId",
          "type": "uint256"
        }
      ],
      "name": "safeTransferFrom",
      "outputs": [],
      "stateMutability": "payable",
      "type": "function"
    },
    {
      "inputs": [
        {
          "internalType": "address",
          "name": "from",
          "type": "address"
        },
        {
          "internalType": "address",
          "name": "to",
          "type": "address"
        },
        {
          "internalType": "uint256",
          "name": "tokenId",
          "type": "uint256"
        },
        {
          "internalType": "bytes",
          "name": "data",
          "type": "bytes"
        }
      ],
      "name": "safeTransferFrom",
      "outputs": [],
      "stateMutability": "payable",
      "type": "function"
    },
    {
      "inputs": [
        {
          "internalType": "address",
          "name": "operator",
          "type": "address"
        },
        {
          "internalType": "bool",
          "name": "status",
          "type": "bool"
        }
      ],
      "name": "setApprovalForAll",
      "outputs": [],
      "stateMutability": "nonpayable",
      "type": "function"
    },
    {
      "inputs": [
        {
          "internalType": "bytes4",
          "name": "interfaceId",
          "type": "bytes4"
        }
      ],
      "name": "supportsInterface",
      "outputs": [
        {
          "internalType": "bool",
          "name": "",
          "type": "bool"
        }
      ],
      "stateMutability": "view",
      "type": "function"
    },
    {
      "inputs": [],
      "name": "symbol",
      "outputs": [
        {
          "internalType": "string",
          "name": "",
          "type": "string"
        }
      ],
      "stateMutability": "view",
      "type": "function"
    },
    {
      "inputs": [
        {
          "internalType": "uint256",
          "name": "index",
          "type": "uint256"
        }
      ],
      "name": "tokenByIndex",
      "outputs": [
        {
          "internalType": "uint256",
          "name": "",
          "type": "uint256"
        }
      ],
      "stateMutability": "view",
      "type": "function"
    },
    {
      "inputs": [
        {
          "internalType": "address",
          "name": "owner",
          "type": "address"
        },
        {
          "internalType": "uint256",
          "name": "index",
          "type": "uint256"
        }
      ],
      "name": "tokenOfOwnerByIndex",
      "outputs": [
        {
          "internalType": "uint256",
          "name": "",
          "type": "uint256"
        }
      ],
      "stateMutability": "view",
      "type": "function"
    },
    {
      "inputs": [
        {
          "internalType": "uint256",
          "name": "tokenId",
          "type": "uint256"
        }
      ],
      "name": "tokenURI",
      "outputs": [
        {
          "internalType": "string",
          "name": "",
          "type": "string"
        }
      ],
      "stateMutability": "view",
      "type": "function"
    },
    {
      "inputs": [],
      "name": "totalSupply",
      "outputs": [
        {
          "internalType": "uint256",
          "name": "",
          "type": "uint256"
        }
      ],
      "stateMutability": "view",
      "type": "function"
    },
    {
      "inputs": [
        {
          "internalType": "address",
          "name": "from",
          "type": "address"
        },
        {
          "internalType": "address",
          "name": "to",
          "type": "address"
        },
        {
          "internalType": "uint256",
          "name": "tokenId",
          "type": "uint256"
        }
      ],
      "name": "transferFrom",
      "outputs": [],
      "stateMutability": "payable",
      "type": "function"
    },
    {
      "inputs": [
        {
          "internalType": "uint256",
          "name": "tokenId",
          "type": "uint256"
        },
        {
          "internalType": "address",
          "name": "recipient",
          "type": "address"
        },
        {
          "internalType": "uint256",
          "name": "amount",
          "type": "uint256"
        }
      ],
      "name": "transferOTokens",
      "outputs": [],
      "stateMutability": "nonpayable",
      "type": "function"
    },
    {
      "inputs": [
        {
          "internalType": "uint256",
          "name": "tokenId",
          "type": "uint256"
        }
      ],
      "name": "unlist",
      "outputs": [],
      "stateMutability": "nonpayable",
      "type": "function"
    }
  ],
  "transactionHash": "0x776fcb82f498c259024c07650b14aab5f9bd570a5d0f117069d184a9f1d2e069",
  "args": [],
  "numDeployments": 1,
  "solcInputHash": "8f1572eef8a79e37811d4889f88af51f",
  "bytecode": "0x608060405234801561001057600080fd5b50614e30806100206000396000f3fe6080604052600436106101fe5760003560e01c80636352211e1161011d578063bf5a4dd3116100b0578063e985e9c51161007f578063e9d8051811610064578063e9d80518146106a5578063ec4087411461070b578063fcf0dc701461078c57600080fd5b8063e985e9c514610665578063e9c927ce1461068557600080fd5b8063bf5a4dd3146105bd578063c87b56dd146105dd578063d96a094a146105fd578063de3764681461061057600080fd5b806380039a69116100ec57806380039a691461054657806395d89b4114610575578063a22cb4651461058a578063b88d4fde146105aa57600080fd5b80636352211e1461049157806364402634146104b157806369336e4f146104d157806370a082311461052657600080fd5b806332dea195116101955780634f6ccce7116101645780634f6ccce71461039057806350fd7367146103b05780635101ab53146103d057806351a15a7b1461040257600080fd5b806332dea1951461031d5780633b21b2151461033d5780633b2af2721461035d57806342842e0e1461037d57600080fd5b806318160ddd116101d157806318160ddd146102a757806323b872dd146102ca5780632f745c59146102dd57806330bafc65146102fd57600080fd5b806301ffc9a71461020357806306fdde0314610238578063081812fc1461025a578063095ea7b314610292575b600080fd5b34801561020f57600080fd5b5061022361021e366004614657565b6107ac565b60405190151581526020015b60405180910390f35b34801561024457600080fd5b5061024d610807565b60405161022f91906146cc565b34801561026657600080fd5b5061027a6102753660046146df565b6108b8565b6040516001600160a01b03909116815260200161022f565b6102a56102a036600461470d565b6108c3565b005b3480156102b357600080fd5b506102bc610a05565b60405190815260200161022f565b6102a56102d8366004614739565b610a14565b3480156102e957600080fd5b506102bc6102f836600461470d565b610aa7565b34801561030957600080fd5b5061024d6103183660046146df565b610aba565b34801561032957600080fd5b506102a561033836600461477a565b610ac5565b34801561034957600080fd5b5061024d6103583660046146df565b610c5d565b34801561036957600080fd5b506102a5610378366004614797565b610c68565b6102a561038b366004614739565b610f83565b34801561039c57600080fd5b506102bc6103ab3660046146df565b610f9e565b3480156103bc57600080fd5b506102a56103cb3660046147be565b610fa9565b3480156103dc57600080fd5b506103f06103eb3660046146df565b6110b4565b60405161022f96959493929190614824565b34801561040e57600080fd5b5061046c61041d3660046146df565b60009081527f7cb630d146436defe02f120e4c839c242f8b65efc3c28d82b113b73e8a81c29360205260409020805460019091015490916001600160a01b03821691600160a01b900460ff1690565b604080519384526001600160a01b03909216602084015215159082015260600161022f565b34801561049d57600080fd5b5061027a6104ac3660046146df565b6111c7565b3480156104bd57600080fd5b506102a56104cc36600461477a565b6111d2565b3480156104dd57600080fd5b506102bc6104ec36600461477a565b6001600160a01b031660009081527f3038aceb20aeb59f48d6bf8fd13e020bec41e77992f7e7e4e936e030912d10fa602052604090205490565b34801561053257600080fd5b506102bc61054136600461477a565b611334565b34801561055257600080fd5b506105666105613660046146df565b61133f565b60405161022f93929190614858565b34801561058157600080fd5b5061024d611405565b34801561059657600080fd5b506102a56105a5366004614880565b611436565b6102a56105b836600461494a565b61151a565b3480156105c957600080fd5b506102a56105d83660046146df565b6115ae565b3480156105e957600080fd5b5061024d6105f83660046146df565b61167b565b6102a561060b3660046146df565b6118e8565b34801561061c57600080fd5b506102bc61062b36600461477a565b6001600160a01b031660009081527f7cb630d146436defe02f120e4c839c242f8b65efc3c28d82b113b73e8a81c292602052604090205490565b34801561067157600080fd5b506102236106803660046149ca565b611a28565b34801561069157600080fd5b506102bc6106a0366004614a09565b611a77565b3480156106b157600080fd5b506102bc6106c0366004614aa0565b60009182527f3038aceb20aeb59f48d6bf8fd13e020bec41e77992f7e7e4e936e030912d10f9602090815260408084206001600160a01b039390931684526001909201905290205490565b34801561071757600080fd5b5061076d7f3038aceb20aeb59f48d6bf8fd13e020bec41e77992f7e7e4e936e030912d10f7547f3038aceb20aeb59f48d6bf8fd13e020bec41e77992f7e7e4e936e030912d10f8546001600160a01b0390911691565b604080516001600160a01b03909316835260208301919091520161022f565b34801561079857600080fd5b506102a56107a73660046146df565b611d16565b7fffffffff00000000000000000000000000000000000000000000000000000000811660009081527f326d0c59a7612f6a9919e2a8ee333c80ba689d8ba2634de89c85cbb04832e705602052604081205460ff165b92915050565b60607f99574a7094154bb123ae6ae102096f0bf9679b85a5cd1e727aaa0ae5f132e6b1805461083590614ac5565b80601f016020809104026020016040519081016040528092919081815260200182805461086190614ac5565b80156108ae5780601f10610883576101008083540402835291602001916108ae565b820191906000526020600020905b81548152906001019060200180831161089157829003601f168201915b5050505050905090565b600061080182611d96565b6108ce828234611e52565b60006108d9826111c7565b9050806001600160a01b0316836001600160a01b031614156109685760405162461bcd60e51b815260206004820152602160248201527f4552433732313a20617070726f76616c20746f2063757272656e74206f776e6560448201527f720000000000000000000000000000000000000000000000000000000000000060648201526084015b60405180910390fd5b336001600160a01b038216148061098457506109848133611a28565b6109f65760405162461bcd60e51b815260206004820152603860248201527f4552433732313a20617070726f76652063616c6c6572206973206e6f74206f7760448201527f6e6572206e6f7220617070726f76656420666f7220616c6c0000000000000000606482015260840161095f565b610a008383611ec6565b505050565b6000610a0f611f53565b905090565b610a2083838334611f7e565b610a2a3382611ff7565b610a9c5760405162461bcd60e51b815260206004820152603060248201527f4552433732313a207472616e736665722063616c6c6572206973206e6f74206f60448201527f776e6572206f7220617070726f76656400000000000000000000000000000000606482015260840161095f565b610a00838383612132565b6000610ab38383612262565b9392505050565b60606108018261228f565b6001600160a01b03811660009081527f7cb630d146436defe02f120e4c839c242f8b65efc3c28d82b113b73e8a81c29260205260409020547f7cb630d146436defe02f120e4c839c242f8b65efc3c28d82b113b73e8a81c28a90610b6b5760405162461bcd60e51b815260206004820152601160248201527f4e6f204652205061796d656e7420647565000000000000000000000000000000604482015260640161095f565b6001600160a01b0382166000818152600883016020526040808220805490839055905190929083908381818185875af1925050503d8060008114610bcb576040519150601f19603f3d011682016040523d82523d6000602084013e610bd0565b606091505b5050905080610c215760405162461bcd60e51b815260206004820152601460248201527f4661696c656420746f2072656c65617365204652000000000000000000000000604482015260640161095f565b60405182906001600160a01b038616907f5a9202ceea6770814401fd72940be33fb25a4b30d55ca69183766ad7feb3e5ef90600090a350505050565b6060610801826122d0565b7f3038aceb20aeb59f48d6bf8fd13e020bec41e77992f7e7e4e936e030912d10f76001600160a01b038316610cdf5760405162461bcd60e51b815260206004820152601c60248201527f7472616e7366657220746f20746865207a65726f206164647265737300000000604482015260640161095f565b6001600160a01b038316331415610d2b5760405162461bcd60e51b815260206004820152601060248201526f3a3930b739b332b9103a379039b2b63360811b604482015260640161095f565b60008211610d7b5760405162461bcd60e51b815260206004820152601460248201527f7472616e7366657220616d6f756e742069732030000000000000000000000000604482015260640161095f565b6000848152600282016020908152604080832033845260010190915290205482811015610dea5760405162461bcd60e51b815260206004820152601f60248201527f7472616e7366657220616d6f756e7420657863656564732062616c616e636500604482015260640161095f565b6000858152600283016020908152604080832033845260010190915280822085840390556001600160a01b03861682529020805484019055610e2c8382614b16565b610f415760005b6000868152600284016020526040902054811015610ef85760008681526002840160205260409020805433919083908110610e7057610e70614b2d565b6000918252602090912001546001600160a01b03161415610ee65760008681526002840160205260409020805486919083908110610eb057610eb0614b2d565b9060005260206000200160006101000a8154816001600160a01b0302191690836001600160a01b03160217905550505050505050565b80610ef081614b43565b915050610e33565b5060405162461bcd60e51b815260206004820152600960248201527f4e6f7420466f756e640000000000000000000000000000000000000000000000604482015260640161095f565b600085815260028301602090815260408220805460018101825590835291200180546001600160a01b0386166001600160a01b03199091161790555050505050565b610a008383836040518060200160405280600081525061151a565b600061080182612353565b610fb33383611ff7565b6110255760405162461bcd60e51b815260206004820152602e60248201527f455243353137333a206c6973742063616c6c6572206973206e6f74206f776e6560448201527f72206e6f7220617070726f766564000000000000000000000000000000000000606482015260840161095f565b60408051606081018252918252336020808401918252600184840181815260009687527f7cb630d146436defe02f120e4c839c242f8b65efc3c28d82b113b73e8a81c2939092529290942092518355519101805492511515600160a01b0274ffffffffffffffffffffffffffffffffffffffffff199093166001600160a01b0390921691909117919091179055565b60008181527f7cb630d146436defe02f120e4c839c242f8b65efc3c28d82b113b73e8a81c2906020908152604080832080546001820154600283015460038401546004909401547f7cb630d146436defe02f120e4c839c242f8b65efc3c28d82b113b73e8a81c291875285882080548751818a0281018a0190985280885289988998899889986060987f7cb630d146436defe02f120e4c839c242f8b65efc3c28d82b113b73e8a81c28a9860ff909216979096919592949093919283918301828280156111aa57602002820191906000526020600020905b81546001600160a01b0316815260019091019060200180831161118c575b505050505090509650965096509650965096505091939550919395565b60006108018261237f565b6001600160a01b03811660009081527f3038aceb20aeb59f48d6bf8fd13e020bec41e77992f7e7e4e936e030912d10fa60205260409020547f3038aceb20aeb59f48d6bf8fd13e020bec41e77992f7e7e4e936e030912d10f7906112785760405162461bcd60e51b815260206004820152601160248201527f4e6f204f52205061796d656e7420647565000000000000000000000000000000604482015260640161095f565b6001600160a01b0382166000818152600383016020526040808220805490839055905190929083908381818185875af1925050503d80600081146112d8576040519150601f19603f3d011682016040523d82523d6000602084013e6112dd565b606091505b505090508061132e5760405162461bcd60e51b815260206004820152601460248201527f4661696c656420746f2072656c65617365204f52000000000000000000000000604482015260640161095f565b50505050565b600061080182612404565b60008181527f3038aceb20aeb59f48d6bf8fd13e020bec41e77992f7e7e4e936e030912d10f96020908152604080832060028101546003820154825484518187028101870190955280855286956060957f3038aceb20aeb59f48d6bf8fd13e020bec41e77992f7e7e4e936e030912d10f7959290918391908301828280156113f057602002820191906000526020600020905b81546001600160a01b031681526001909101906020018083116113d2575b50505050509050935093509350509193909250565b60607f99574a7094154bb123ae6ae102096f0bf9679b85a5cd1e727aaa0ae5f132e6b1600101805461083590614ac5565b6001600160a01b03821633141561148f5760405162461bcd60e51b815260206004820152601960248201527f4552433732313a20617070726f766520746f2063616c6c657200000000000000604482015260640161095f565b3360008181527f3c7bf052874fa81625121783266a03507bd2cd48b16e571c01a04e8dd3fb07aa602090815260408083206001600160a01b03871680855290835292819020805460ff191686151590811790915590519081529192917f17307eab39ab6107e8899845ad3d59bd9653f200f220920489ca2b5937696c31910160405180910390a35050565b61152684848434611f7e565b6115303383611ff7565b6115a25760405162461bcd60e51b815260206004820152603060248201527f4552433732313a207472616e736665722063616c6c6572206973206e6f74206f60448201527f776e6572206f7220617070726f76656400000000000000000000000000000000606482015260840161095f565b61132e848484846124c2565b6115b83382611ff7565b61162a5760405162461bcd60e51b815260206004820152603060248201527f455243353137333a20756e6c6973742063616c6c6572206973206e6f74206f7760448201527f6e6572206e6f7220617070726f76656400000000000000000000000000000000606482015260840161095f565b60009081527f7cb630d146436defe02f120e4c839c242f8b65efc3c28d82b113b73e8a81c29360205260408120908155600101805474ffffffffffffffffffffffffffffffffffffffffff19169055565b60606116a9827f3c7bf052874fa81625121783266a03507bd2cd48b16e571c01a04e8dd3fb07a65b90612540565b61171b5760405162461bcd60e51b815260206004820152602f60248201527f4552433732314d657461646174613a2055524920717565727920666f72206e6f60448201527f6e6578697374656e7420746f6b656e0000000000000000000000000000000000606482015260840161095f565b60008281527f99574a7094154bb123ae6ae102096f0bf9679b85a5cd1e727aaa0ae5f132e6b46020526040812080547f99574a7094154bb123ae6ae102096f0bf9679b85a5cd1e727aaa0ae5f132e6b192919061177790614ac5565b80601f01602080910402602001604051908101604052809291908181526020018280546117a390614ac5565b80156117f05780601f106117c5576101008083540402835291602001916117f0565b820191906000526020600020905b8154815290600101906020018083116117d357829003601f168201915b50505050509050600082600201805461180890614ac5565b80601f016020809104026020016040519081016040528092919081815260200182805461183490614ac5565b80156118815780601f1061185657610100808354040283529160200191611881565b820191906000526020600020905b81548152906001019060200180831161186457829003601f168201915b5050505050905080516000141561189a57509392505050565b8151156118cd5780826040516020016118b4929190614b5e565b6040516020818303038152906040529350505050919050565b806118d78661254c565b6040516020016118b4929190614b5e565b60008181527f7cb630d146436defe02f120e4c839c242f8b65efc3c28d82b113b73e8a81c293602052604090206001908101547f7cb630d146436defe02f120e4c839c242f8b65efc3c28d82b113b73e8a81c28a91600160a01b90910460ff161515146119975760405162461bcd60e51b815260206004820152601360248201527f546f6b656e206973206e6f74206c697374656400000000000000000000000000604482015260640161095f565b600082815260098201602052604090205434146119f65760405162461bcd60e51b815260206004820181905260248201527f73616c65507269636520616e64206d73672e76616c7565206d69736d61746368604482015260640161095f565b6000828152600982016020526040902060018101549054611a24916001600160a01b0316903390859061267e565b5050565b6001600160a01b0380831660009081527f3c7bf052874fa81625121783266a03507bd2cd48b16e571c01a04e8dd3fb07aa6020908152604080832093851683529290529081205460ff16610ab3565b600060058660ff1610158015611a91575060148660ff1611155b611b035760405162461bcd60e51b815260206004820152602760248201527f6e756d47656e65726174696f6e73206d757374206265206265747765656e203560448201527f20616e6420323000000000000000000000000000000000000000000000000000606482015260840161095f565b66b1a2bc2ec500008510158015611b2257506706f05b59d3b200008511155b611b945760405162461bcd60e51b815260206004820152602660248201527f726577617264526174696f206d757374206265206265747765656e203525206160448201527f6e64203530250000000000000000000000000000000000000000000000000000606482015260840161095f565b66b1a2bc2ec500008410158015611bb357506706f05b59d3b200008411155b611c255760405162461bcd60e51b815260206004820152602160248201527f4f526174696f206d757374206265206265747765656e20352520616e6420353060448201527f2500000000000000000000000000000000000000000000000000000000000000606482015260840161095f565b60006064611c6f6716744a6d6e950000611c4a60ff8b16670de0b6b3a7640000614b8d565b611c549190614b16565b611c6960ff8b16670de0b6b3a7640000614b8d565b90612942565b611c799190614bc2565b611c84906064614b8d565b90506000611ca4611c9d87670de0b6b3a7640000614b16565b8890612957565b9050611cb08787612957565b9550611cba612963565b7f0bec8ab077af1e12783ac8c970bca6dada042613c1ff87b4d0953dea6b0115fc54611ce8818b898b61299d565b611cf58a828b8587612aa4565b611cff8186612ca3565b611d098187612d05565b9998505050505050505050565b7f3038aceb20aeb59f48d6bf8fd13e020bec41e77992f7e7e4e936e030912d10f780546001600160a01b03163314611d905760405162461bcd60e51b815260206004820152601460248201527f43616c6c6572206e6f74207065726d6974746564000000000000000000000000604482015260640161095f565b60010155565b60007f3c7bf052874fa81625121783266a03507bd2cd48b16e571c01a04e8dd3fb07a6611dc38184612540565b611e355760405162461bcd60e51b815260206004820152602c60248201527f4552433732313a20617070726f76656420717565727920666f72206e6f6e657860448201527f697374656e7420746f6b656e0000000000000000000000000000000000000000606482015260840161095f565b60009283526003016020525060409020546001600160a01b031690565b8015610a005760405162461bcd60e51b815260206004820152602b60248201527f4552433732313a2070617961626c6520617070726f76652063616c6c73206e6f60448201527f7420737570706f72746564000000000000000000000000000000000000000000606482015260840161095f565b60008181527f3c7bf052874fa81625121783266a03507bd2cd48b16e571c01a04e8dd3fb07a96020526040902080546001600160a01b0319166001600160a01b0384169081179091558190611f1a8261237f565b6001600160a01b03167f8c5be1e5ebec7d5bd14f71427d1e84f3dd0314c0f7b2291e5b200ac8c7c3b92560405160405180910390a45050565b6000610a0f7f3c7bf052874fa81625121783266a03507bd2cd48b16e571c01a04e8dd3fb07a6612d0f565b8015611ff25760405162461bcd60e51b815260206004820152602c60248201527f4552433732313a2070617961626c65207472616e736665722063616c6c73206e60448201527f6f7420737570706f727465640000000000000000000000000000000000000000606482015260840161095f565b61132e565b6000612023827f3c7bf052874fa81625121783266a03507bd2cd48b16e571c01a04e8dd3fb07a66116a3565b6120955760405162461bcd60e51b815260206004820152602360248201527f4552433732313a20717565727920666f72206e6f6e6578697374656e7420746f60448201527f6b656e0000000000000000000000000000000000000000000000000000000000606482015260840161095f565b60006120a08361237f565b9050806001600160a01b0316846001600160a01b031614806120db5750836001600160a01b03166120d084611d96565b6001600160a01b0316145b8061212a57506001600160a01b0380821660009081527f3c7bf052874fa81625121783266a03507bd2cd48b16e571c01a04e8dd3fb07aa602090815260408083209388168352929052205460ff165b949350505050565b816001600160a01b0316836001600160a01b031614156121875760405162461bcd60e51b815260206004820152601060248201526f3a3930b739b332b9103a379039b2b63360811b604482015260640161095f565b612192838383612d1a565b60008181527f7cb630d146436defe02f120e4c839c242f8b65efc3c28d82b113b73e8a81c293602052604090206001908101547f7cb630d146436defe02f120e4c839c242f8b65efc3c28d82b113b73e8a81c28a91600160a01b90910460ff161515141561222d5760008281526009820160205260408120908155600101805474ffffffffffffffffffffffffffffffffffffffffff191690555b600082815260068201602052604081206003810182905560040180549161225383614b43565b919050555061132e8383612f16565b6000610ab37f3c7bf052874fa81625121783266a03507bd2cd48b16e571c01a04e8dd3fb07a68484613120565b60008181527f958f4f9db6ce87299d2b6ad9a012c8ea9d207ed3b27d2894b9c8a6036c2271e9602081905260409091205460609190610ab39060ff16613144565b606060007f958f4f9db6ce87299d2b6ad9a012c8ea9d207ed3b27d2894b9c8a6036c2271e99050604051806060016040528060318152602001614dca6031913960008481526020839052604090205461232b9060ff1661254c565b60405160200161233c929190614b5e565b604051602081830303815290604052915050919050565b60006108017f3c7bf052874fa81625121783266a03507bd2cd48b16e571c01a04e8dd3fb07a6836132d9565b6000806123ac7f3c7bf052874fa81625121783266a03507bd2cd48b16e571c01a04e8dd3fb07a6846132ef565b90506001600160a01b0381166108015760405162461bcd60e51b815260206004820152601560248201527f4552433732313a20696e76616c6964206f776e65720000000000000000000000604482015260640161095f565b60006001600160a01b0382166124825760405162461bcd60e51b815260206004820152602a60248201527f4552433732313a2062616c616e636520717565727920666f7220746865207a6560448201527f726f206164647265737300000000000000000000000000000000000000000000606482015260840161095f565b6001600160a01b03821660009081527f3c7bf052874fa81625121783266a03507bd2cd48b16e571c01a04e8dd3fb07a860205260409020610801906132fb565b6124cd848484612132565b6124d984848484613305565b61132e5760405162461bcd60e51b815260206004820152603260248201527f4552433732313a207472616e7366657220746f206e6f6e20455243373231526560448201527131b2b4bb32b91034b6b83632b6b2b73a32b960711b606482015260840161095f565b6000610ab38383613431565b60608161258c57505060408051808201909152600181527f3000000000000000000000000000000000000000000000000000000000000000602082015290565b8160005b81156125b657806125a081614b43565b91506125af9050600a83614bc2565b9150612590565b60008167ffffffffffffffff8111156125d1576125d16148be565b6040519080825280601f01601f1916602001820160405280156125fb576020820181803683370190505b5090505b841561212a57612610600183614b16565b915061261d600a86614bd6565b612628906030614bea565b60f81b81838151811061263d5761263d614b2d565b60200101907effffffffffffffffffffffffffffffffffffffffffffffffffffffffffffff1916908160001a905350612677600a86614bc2565b94506125ff565b826001600160a01b0316846001600160a01b031614156126d35760405162461bcd60e51b815260206004820152601060248201526f3a3930b739b332b9103a379039b2b63360811b604482015260640161095f565b6126de848484612d1a565b6126f984848460405180602001604052806000815250613305565b6127605760405162461bcd60e51b815260206004820152603260248201527f4552433732313a207472616e7366657220746f206e6f6e20455243373231526560448201527131b2b4bb32b91034b6b83632b6b2b73a32b960711b606482015260840161095f565b60008281527f7cb630d146436defe02f120e4c839c242f8b65efc3c28d82b113b73e8a81c29060205260409020600301547f7cb630d146436defe02f120e4c839c242f8b65efc3c28d82b113b73e8a81c28a9082116128cd5760008381526006820160205260408120600381018490556004018054916127df83614b43565b91905055506127ee8484612f16565b60008381526009820160205260408082206001015490516001600160a01b039091169084908381818185875af1925050503d806000811461284b576040519150601f19603f3d011682016040523d82523d6000602084013e612850565b606091505b50509050806128c75760405162461bcd60e51b815260206004820152602b60248201527f455243353137333a204661696c656420746f2073656e64206d73672e76616c7560448201527f6520746f206c6973746572000000000000000000000000000000000000000000606482015260840161095f565b5061290c565b6128d78383613449565b60008381526006820160205260408120600381018490556004018054916128fd83614b43565b919050555061290c8484612f16565b60009283526009016020525060408120908155600101805474ffffffffffffffffffffffffffffffffffffffffff191690555050565b6000610ab383670de0b6b3a7640000846136fb565b6000610ab383836137e2565b60017f0bec8ab077af1e12783ac8c970bca6dada042613c1ff87b4d0953dea6b0115fc8054600090612996908490614bea565b9091555050565b60008481527f3038aceb20aeb59f48d6bf8fd13e020bec41e77992f7e7e4e936e030912d10f96020818152604080842060028181018890556003820187905582518084019093527f3038aceb20aeb59f48d6bf8fd13e020bec41e77992f7e7e4e936e030912d10f780546001600160a01b0390811685528a1684860152958a905293909252612a2b926144fe565b506001808201546000878152600284016020908152604080832086546001600160a01b03168452909401905291909120819055612a7090670de0b6b3a7640000614b16565b60009586526002909101602090815260408087206001600160a01b0390961687526001909501905292909320919091555050565b60008360ff16118015612ab75750600082115b8015612acb5750670de0b6b3a76400008211155b8015612ad75750600081115b612b235760405162461bcd60e51b815260206004820152601360248201527f496e76616c696420446174612050617373656400000000000000000000000000604482015260640161095f565b612b2d85856138d7565b612b496000868660405180602001604052806000815250613305565b612bb05760405162461bcd60e51b815260206004820152603260248201527f4552433732313a207472616e7366657220746f206e6f6e20455243373231526560448201527131b2b4bb32b91034b6b83632b6b2b73a32b960711b606482015260840161095f565b6040805160c08101825260ff9485168152602080820194855281830193845260006060830181815260016080850181815260a086018281529a84527f7cb630d146436defe02f120e4c839c242f8b65efc3c28d82b113b73e8a81c29085528684209551865460ff1990811691909b161786559751858201559551600285015551600384015594516004830155955160059091018054909516901515179093557f7cb630d146436defe02f120e4c839c242f8b65efc3c28d82b113b73e8a81c2918452918120805492830181558152919091200180546001600160a01b0319166001600160a01b0392909216919091179055565b60008281527f99574a7094154bb123ae6ae102096f0bf9679b85a5cd1e727aaa0ae5f132e6b46020908152604090912082517f99574a7094154bb123ae6ae102096f0bf9679b85a5cd1e727aaa0ae5f132e6b19261132e929190850190614563565b611a248282613a1f565b6000610801826132fb565b826001600160a01b0316612d2d8261237f565b6001600160a01b031614612da95760405162461bcd60e51b815260206004820152602960248201527f4552433732313a207472616e73666572206f6620746f6b656e2074686174206960448201527f73206e6f74206f776e0000000000000000000000000000000000000000000000606482015260840161095f565b6001600160a01b038216612e245760405162461bcd60e51b8152602060048201526024808201527f4552433732313a207472616e7366657220746f20746865207a65726f2061646460448201527f7265737300000000000000000000000000000000000000000000000000000000606482015260840161095f565b612e2f838383613ab7565b612e3a600082611ec6565b6001600160a01b03831660009081527f3c7bf052874fa81625121783266a03507bd2cd48b16e571c01a04e8dd3fb07a8602052604090207f3c7bf052874fa81625121783266a03507bd2cd48b16e571c01a04e8dd3fb07a690612e9d9083613ac2565b506001600160a01b03831660009081526002820160205260409020612ec29083613ace565b50612ece818385613ada565b5081836001600160a01b0316856001600160a01b03167fddf252ad1be2c89b69c2b068fc378daa952ba7f163c4a11628f55a4df523b3ef60405160405180910390a450505050565b60008181527f7cb630d146436defe02f120e4c839c242f8b65efc3c28d82b113b73e8a81c29060209081526040808320547f7cb630d146436defe02f120e4c839c242f8b65efc3c28d82b113b73e8a81c291909252909120547f7cb630d146436defe02f120e4c839c242f8b65efc3c28d82b113b73e8a81c28a9160ff161115612fd9576000918252600701602090815260408220805460018101825590835291200180546001600160a01b0319166001600160a01b0392909216919091179055565b60005b6000838152600783016020526040902054612ff990600190614b16565b8110156130a1576000838152600783016020526040902061301b826001614bea565b8154811061302b5761302b614b2d565b600091825260208083209091015485835260078501909152604090912080546001600160a01b03909216918390811061306657613066614b2d565b600091825260209091200180546001600160a01b0319166001600160a01b03929092169190911790558061309981614b43565b915050612fdc565b50600082815260078201602052604090208054806130c1576130c1614c02565b60008281526020808220830160001990810180546001600160a01b0319908116909155930190935584815260078401835260408120805460018101825590825292902090910180546001600160a01b0386169216919091179055505050565b6001600160a01b0382166000908152600284016020526040812061212a9083613af0565b606060ff821661318757505060408051808201909152600781527f4342455f43433000000000000000000000000000000000000000000000000000602082015290565b600160ff831614156131cc57505060408051808201909152600781527f4342455f45435200000000000000000000000000000000000000000000000000602082015290565b600260ff8316141561321157505060408051808201909152600881527f4342455f4e454352000000000000000000000000000000000000000000000000602082015290565b600360ff8316141561325657505060408051808201909152600b81527f4342455f4e4543525f4853000000000000000000000000000000000000000000602082015290565b600460ff8316141561329b57505060408051808201909152600681527f4342455f50520000000000000000000000000000000000000000000000000000602082015290565b505060408051808201909152600981527f4342455f50525f48530000000000000000000000000000000000000000000000602082015290565b919050565b6000806132e68484613afc565b50949350505050565b6000610ab38383613b18565b6000610801825490565b60006001600160a01b0384163b61331e5750600161212a565b60006133c963150b7a0260e01b338887876040516024016133429493929190614c18565b604051602081830303815290604052907bffffffffffffffffffffffffffffffffffffffffffffffffffffffff19166020820180517bffffffffffffffffffffffffffffffffffffffffffffffffffffffff8381831617835250505050604051806060016040528060328152602001614d98603291396001600160a01b0388169190613ba9565b90506000818060200190518101906133e19190614c54565b7fffffffff00000000000000000000000000000000000000000000000000000000167f150b7a02000000000000000000000000000000000000000000000000000000001492505050949350505050565b60008181526001830160205260408120541515610ab3565b6134538282613bb8565b60008281527f7cb630d146436defe02f120e4c839c242f8b65efc3c28d82b113b73e8a81c29060205260408120600301547f7cb630d146436defe02f120e4c839c242f8b65efc3c28d82b113b73e8a81c28a917f3038aceb20aeb59f48d6bf8fd13e020bec41e77992f7e7e4e936e030912d10f7916134d29085614b16565b6000868152600685016020526040812060018101546002820154600483015492549495509293613508938693909160ff16613d29565b905060005b81518110156135a85781818151811061352857613528614b2d565b60200260200101518560080160008760070160008b8152602001908152602001600020848154811061355c5761355c614b2d565b60009182526020808320909101546001600160a01b0316835282019290925260400181208054909190613590908490614bea565b909155508190506135a081614b43565b91505061350d565b506000868152600985016020908152604080832060010154600287019092528220600301546001600160a01b03909116906135e4908590612957565b6135ee9088614b16565b604051600081818185875af1925050503d806000811461362a576040519150601f19603f3d011682016040523d82523d6000602084013e61362f565b606091505b50509050806136a65760405162461bcd60e51b815260206004820152603960248201527f4661696c656420746f2073656e6420455448206166746572204f5220616e642060448201527f465220646973747269627574696f6e20746f206c697374657200000000000000606482015260840161095f565b60008781526006860160205260409020600101546136c5908490612957565b604051879089907f0362ef0ca7c60bdd7789f855ba29ed06265c4c942f6562c9e0007dbcb1e107c790600090a450505050505050565b6000808060001985870985870292508281108382030391505080600014156137365783828161372c5761372c614bac565b0492505050610ab3565b838110613779576040517f773cc18c000000000000000000000000000000000000000000000000000000008152600481018290526024810185905260440161095f565b60008486880960026001871981018816978890046003810283188082028403028082028403028082028403028082028403028082028403029081029092039091026000889003889004909101858311909403939093029303949094049190911702949350505050565b60008080600019848609848602925082811083820303915050670de0b6b3a7640000811061383f576040517fd31b34020000000000000000000000000000000000000000000000000000000081526004810182905260240161095f565b600080670de0b6b3a76400008688099150506706f05b59d3b1ffff8111826138795780670de0b6b3a7640000850401945050505050610801565b6204000082850304939091119091037d40000000000000000000000000000000000000000000000000000000000002919091177faccb18165bd6fe31ae1cf318dc5b51eee0e1ba569b88cd74c1773b91fac106690201905092915050565b6001600160a01b03821661392d5760405162461bcd60e51b815260206004820181905260248201527f4552433732313a206d696e7420746f20746865207a65726f2061646472657373604482015260640161095f565b7f3c7bf052874fa81625121783266a03507bd2cd48b16e571c01a04e8dd3fb07a66139588183612540565b156139a55760405162461bcd60e51b815260206004820152601c60248201527f4552433732313a20746f6b656e20616c7265616479206d696e74656400000000604482015260640161095f565b6139b160008484613ab7565b6001600160a01b038316600090815260028201602052604090206139d59083613ace565b506139e1818385613ada565b5060405182906001600160a01b038516906000907fddf252ad1be2c89b69c2b068fc378daa952ba7f163c4a11628f55a4df523b3ef908290a4505050565b60068160ff161115613a735760405162461bcd60e51b815260206004820152600f60248201527f496e76616c6964204c6963656e73650000000000000000000000000000000000604482015260640161095f565b60007f958f4f9db6ce87299d2b6ad9a012c8ea9d207ed3b27d2894b9c8a6036c2271e96000938452602052506040909120805460ff191660ff909216919091179055565b610a00838383613e84565b6000610ab38383613e8f565b6000610ab38383613f5c565b600061212a84846001600160a01b038516613fab565b6000610ab38383614048565b6000808080613b0b86866140ce565b9097909650945050505050565b600081815260018301602052604081205480613b765760405162461bcd60e51b815260206004820152601e60248201527f456e756d657261626c654d61703a206e6f6e6578697374656e74206b65790000604482015260640161095f565b836000016001820381548110613b8e57613b8e614b2d565b90600052602060002090600202016001015491505092915050565b606061212a848460008561416b565b60008281527f7cb630d146436defe02f120e4c839c242f8b65efc3c28d82b113b73e8a81c29060205260408120600301547f7cb630d146436defe02f120e4c839c242f8b65efc3c28d82b113b73e8a81c28a917f3038aceb20aeb59f48d6bf8fd13e020bec41e77992f7e7e4e936e030912d10f791613c379085614b16565b6000868152600280850160205260408220015491925090613c59908390612957565b905060005b6000878152600285016020526040902054811015613d205760008781526002850160205260408120805483908110613c9857613c98614b2d565b60009182526020808320909101548a835260028801825260408084206001600160a01b03909216808552600192909201909252912054909150613cdc908490612957565b6001600160a01b038216600090815260038701602052604081208054909190613d06908490614bea565b90915550829150613d18905081614b43565b915050613c5e565b50505050505050565b60606000613d37848461427d565b905060008167ffffffffffffffff811115613d5457613d546148be565b604051908082528060200260200182016040528015613d7d578160200160208202803683370190505b50905060015b613d8e836001614bea565b811015613e7857600087670de0b6b3a764000014613e2d576000613db28986614293565b613dc490670de0b6b3a7640000614c71565b90506000613ddd613dd6600186614b16565b8b90614293565b90506000613deb8d8d61436e565b90506000613e0b613e048d670de0b6b3a7640000614c71565b839061436e565b905083613e188483614cb0565b613e229190614d37565b945050505050613e3e565b613e3b84611c698c8c612957565b90505b8083613e4a8487614b16565b81518110613e5a57613e5a614b2d565b60209081029190910101525080613e7081614b43565b915050613d83565b50979650505050505050565b610a00838383614465565b60008181526001830160205260408120548015613f5257835460009085906000198101908110613ec157613ec1614b2d565b9060005260206000200154905080856000016001840381548110613ee757613ee7614b2d565b6000918252602080832090910192909255918252600186019052604090208190558354849080613f1957613f19614c02565b60019003818190600052602060002001600090559055836001016000848152602001908152602001600020600090556001915050610801565b6000915050610801565b6000818152600183016020526040812054613fa357508154600181810184556000848152602080822090930184905584548482528286019093526040902091909155610801565b506000610801565b600082815260018401602052604081205480614010575050604080518082018252838152602080820184815286546001818101895560008981528481209551600290930290950191825591519082015586548684528188019092529290912055610ab3565b8285600001600183038154811061402957614029614b2d565b9060005260206000209060020201600101819055506000915050610ab3565b815460009082106140a65760405162461bcd60e51b815260206004820152602260248201527f456e756d657261626c655365743a20696e646578206f7574206f6620626f756e604482015261647360f01b606482015260840161095f565b8260000182815481106140bb576140bb614b2d565b9060005260206000200154905092915050565b81546000908190831061412e5760405162461bcd60e51b815260206004820152602260248201527f456e756d657261626c654d61703a20696e646578206f7574206f6620626f756e604482015261647360f01b606482015260840161095f565b600084600001848154811061414557614145614b2d565b906000526020600020906002020190508060000154816001015492509250509250929050565b6060843b6141e15760405162461bcd60e51b815260206004820152602b60248201527f416464726573735574696c733a2066756e6374696f6e2063616c6c20746f206e60448201527f6f6e2d636f6e7472616374000000000000000000000000000000000000000000606482015260840161095f565b600080866001600160a01b031685876040516141fd9190614d65565b60006040518083038185875af1925050503d806000811461423a576040519150601f19603f3d011682016040523d82523d6000602084013e61423f565b606091505b5091509150811561425357915061212a9050565b8051156142635780518082602001fd5b8360405162461bcd60e51b815260040161095f91906146cc565b600081831061428c5781610ab3565b5090919050565b60008061429f846144a9565b905060008084600116116142bb57670de0b6b3a76400006142bd565b815b9050600184901c5b80156142f5576142d583846137e2565b925060018116156142ed576142ea82846137e2565b91505b60011c6142c5565b6001600160ff1b03821115614339576040517fffb15bcd0000000000000000000000000000000000000000000000000000000081526004810183905260240161095f565b6000808712801561434d5750856001166001145b90508061435a5782614363565b61436383614d81565b979650505050505050565b6000600160ff1b8314806143855750600160ff1b82145b156143bc576040517f3406846c00000000000000000000000000000000000000000000000000000000815260040160405180910390fd5b600080600085126143cd57846143d2565b846000035b9150600084126143e257836143e7565b836000035b905060006143f583836137e2565b90506001600160ff1b0381111561443b576040517fbf79e8d90000000000000000000000000000000000000000000000000000000081526004810182905260240161095f565b6000198087139086138082186001146144545782614459565b826000035b98975050505050505050565b6001600160a01b038216610a005760008181527f99574a7094154bb123ae6ae102096f0bf9679b85a5cd1e727aaa0ae5f132e6b460205260408120610a00916145d7565b6000600160ff1b8214156144e9576040517f741d0b8c00000000000000000000000000000000000000000000000000000000815260040160405180910390fd5b600082126144f75781610801565b5060000390565b828054828255906000526020600020908101928215614553579160200282015b8281111561455357825182546001600160a01b0319166001600160a01b0390911617825560209092019160019091019061451e565b5061455f929150614614565b5090565b82805461456f90614ac5565b90600052602060002090601f0160209004810192826145915760008555614553565b82601f106145aa57805160ff1916838001178555614553565b82800160010185558215614553579182015b828111156145535782518255916020019190600101906145bc565b5080546145e390614ac5565b6000825580601f106145f3575050565b601f0160209004906000526020600020908101906146119190614614565b50565b5b8082111561455f5760008155600101614615565b7fffffffff000000000000000000000000000000000000000000000000000000008116811461461157600080fd5b60006020828403121561466957600080fd5b8135610ab381614629565b60005b8381101561468f578181015183820152602001614677565b8381111561132e5750506000910152565b600081518084526146b8816020860160208601614674565b601f01601f19169290920160200192915050565b602081526000610ab360208301846146a0565b6000602082840312156146f157600080fd5b5035919050565b6001600160a01b038116811461461157600080fd5b6000806040838503121561472057600080fd5b823561472b816146f8565b946020939093013593505050565b60008060006060848603121561474e57600080fd5b8335614759816146f8565b92506020840135614769816146f8565b929592945050506040919091013590565b60006020828403121561478c57600080fd5b8135610ab3816146f8565b6000806000606084860312156147ac57600080fd5b833592506020840135614769816146f8565b600080604083850312156147d157600080fd5b50508035926020909101359150565b600081518084526020808501945080840160005b838110156148195781516001600160a01b0316875295820195908201906001016147f4565b509495945050505050565b60ff8716815285602082015284604082015283606082015282608082015260c060a0820152600061445960c08301846147e0565b83815282602082015260606040820152600061487760608301846147e0565b95945050505050565b6000806040838503121561489357600080fd5b823561489e816146f8565b9150602083013580151581146148b357600080fd5b809150509250929050565b634e487b7160e01b600052604160045260246000fd5b600067ffffffffffffffff808411156148ef576148ef6148be565b604051601f8501601f19908116603f01168101908282118183101715614917576149176148be565b8160405280935085815286868601111561493057600080fd5b858560208301376000602087830101525050509392505050565b6000806000806080858703121561496057600080fd5b843561496b816146f8565b9350602085013561497b816146f8565b925060408501359150606085013567ffffffffffffffff81111561499e57600080fd5b8501601f810187136149af57600080fd5b6149be878235602084016148d4565b91505092959194509250565b600080604083850312156149dd57600080fd5b82356149e8816146f8565b915060208301356148b3816146f8565b803560ff811681146132d457600080fd5b60008060008060008060c08789031215614a2257600080fd5b8635614a2d816146f8565b9550614a3b602088016149f8565b94506040870135935060608701359250614a57608088016149f8565b915060a087013567ffffffffffffffff811115614a7357600080fd5b8701601f81018913614a8457600080fd5b614a93898235602084016148d4565b9150509295509295509295565b60008060408385031215614ab357600080fd5b8235915060208301356148b3816146f8565b600181811c90821680614ad957607f821691505b60208210811415614afa57634e487b7160e01b600052602260045260246000fd5b50919050565b634e487b7160e01b600052601160045260246000fd5b600082821015614b2857614b28614b00565b500390565b634e487b7160e01b600052603260045260246000fd5b6000600019821415614b5757614b57614b00565b5060010190565b60008351614b70818460208801614674565b835190830190614b84818360208801614674565b01949350505050565b6000816000190483118215151615614ba757614ba7614b00565b500290565b634e487b7160e01b600052601260045260246000fd5b600082614bd157614bd1614bac565b500490565b600082614be557614be5614bac565b500690565b60008219821115614bfd57614bfd614b00565b500190565b634e487b7160e01b600052603160045260246000fd5b60006001600160a01b03808716835280861660208401525083604083015260806060830152614c4a60808301846146a0565b9695505050505050565b600060208284031215614c6657600080fd5b8151610ab381614629565b600080831283600160ff1b01831281151615614c8f57614c8f614b00565b836001600160ff1b03018313811615614caa57614caa614b00565b50500390565b60006001600160ff1b03600084136000841385830485118282161615614cd857614cd8614b00565b600160ff1b6000871286820588128184161615614cf757614cf7614b00565b60008712925087820587128484161615614d1357614d13614b00565b87850587128184161615614d2957614d29614b00565b505050929093029392505050565b600082614d4657614d46614bac565b600160ff1b821460001984141615614d6057614d60614b00565b500590565b60008251614d77818460208701614674565b9190910192915050565b6000600160ff1b8214156144f7576144f7614b0056fe4552433732313a207472616e7366657220746f206e6f6e20455243373231526563656976657220696d706c656d656e74657261723a2f2f5f44396b4e3157724e576243713535425341475262544234625333763851415054596d42546853625833412fa264697066735822122065722de9230f4bcb2ea76ed3f15a5092907aa0d3abd45bae81f535690fe491b664736f6c63430008080033",
  "devdoc": {
    "kind": "dev",
    "methods": {
      "approve(address,uint256)": {
        "params": {
          "operator": "address to be approved",
          "tokenId": "token to approve"
        }
      },
      "balanceOf(address)": {
        "returns": {
          "_0": "quantity of tokens held"
        }
      },
      "getApproved(uint256)": {
        "params": {
          "tokenId": "token to query"
        },
        "returns": {
          "_0": "address approved to spend token"
        }
      },
      "isApprovedForAll(address,address)": {
        "params": {
          "account": "address to query for approval granted",
          "operator": "address to query for approval received"
        },
        "returns": {
          "_0": "whether operator is approved to spend tokens held by account"
        }
      },
      "ownerOf(uint256)": {
        "params": {
          "tokenId": "token to query"
        },
        "returns": {
          "_0": "token owner"
        }
      },
      "safeTransferFrom(address,address,uint256)": {
        "params": {
          "from": "sender of token",
          "to": "receiver of token",
          "tokenId": "token id"
        }
      },
      "safeTransferFrom(address,address,uint256,bytes)": {
        "params": {
          "data": "data payload",
          "from": "sender of token",
          "to": "receiver of token",
          "tokenId": "token id"
        }
      },
      "setApprovalForAll(address,bool)": {
        "params": {
          "operator": "address to be approved",
          "status": "approval status"
        }
      },
      "supportsInterface(bytes4)": {
        "params": {
          "interfaceId": "interface id"
        },
        "returns": {
          "_0": "bool whether interface is supported"
        }
      },
      "tokenByIndex(uint256)": {
        "params": {
          "index": "position in global token list to query"
        },
        "returns": {
          "_0": "id of retrieved token"
        }
      },
      "tokenOfOwnerByIndex(address,uint256)": {
        "params": {
          "index": "position in owner's token list to query",
          "owner": "token holder to query"
        },
        "returns": {
          "_0": "id of retrieved token"
        }
      },
      "totalSupply()": {
        "returns": {
          "_0": "total supply"
        }
      },
      "transferFrom(address,address,uint256)": {
        "params": {
          "from": "sender of token",
          "to": "receiver of token",
          "tokenId": "token id"
        }
      }
    },
    "version": 1
  },
  "userdoc": {
    "errors": {
      "PRBMathSD59x18__AbsInputTooSmall()": [
        {
          "notice": "Emitted when the input is MIN_SD59x18."
        }
      ],
      "PRBMathSD59x18__MulInputTooSmall()": [
        {
          "notice": "Emitted when one of the inputs is MIN_SD59x18."
        }
      ],
      "PRBMathSD59x18__MulOverflow(uint256)": [
        {
          "notice": "Emitted when the intermediary absolute result overflows SD59x18."
        }
      ],
      "PRBMathSD59x18__PowuOverflow(uint256)": [
        {
          "notice": "Emitted when the intermediary absolute result overflows SD59x18."
        }
      ],
      "PRBMath__MulDivFixedPointOverflow(uint256)": [
        {
          "notice": "Emitted when the result overflows uint256."
        }
      ],
      "PRBMath__MulDivOverflow(uint256,uint256)": [
        {
          "notice": "Emitted when the result overflows uint256."
        }
      ]
    },
    "kind": "user",
    "methods": {
      "approve(address,uint256)": {
        "notice": "grant approval to given account to spend token"
      },
      "balanceOf(address)": {
        "notice": "query the balance of given address"
      },
      "getApproved(uint256)": {
        "notice": "get approval status for given token"
      },
      "isApprovedForAll(address,address)": {
        "notice": "query approval status of given operator with respect to given address"
      },
      "name()": {
        "notice": "inheritdoc IERC721Metadata"
      },
      "ownerOf(uint256)": {
        "notice": "query the owner of given token"
      },
      "safeTransferFrom(address,address,uint256)": {
        "notice": "transfer token between given addresses, checking for ERC721Receiver implementation if applicable"
      },
      "safeTransferFrom(address,address,uint256,bytes)": {
        "notice": "transfer token between given addresses, checking for ERC721Receiver implementation if applicable"
      },
      "setApprovalForAll(address,bool)": {
        "notice": "grant approval to or revoke approval from given account to spend all tokens held by sender"
      },
      "supportsInterface(bytes4)": {
        "notice": "query whether contract has registered support for given interface"
      },
      "symbol()": {
        "notice": "inheritdoc IERC721Metadata"
      },
      "tokenByIndex(uint256)": {
        "notice": "get token at given internal storage index"
      },
      "tokenOfOwnerByIndex(address,uint256)": {
        "notice": "get token of given owner at given internal storage index"
      },
      "tokenURI(uint256)": {
        "notice": "inheritdoc IERC721Metadata"
      },
      "totalSupply()": {
        "notice": "get total token supply"
      },
      "transferFrom(address,address,uint256)": {
        "notice": "transfer token between given addresses, without checking for ERC721Receiver implementation if applicable"
      }
    },
    "version": 1
  },
  "storageLayout": {
    "storage": [],
    "types": null
  }
}